{
  "contractName": "ChargingOrigin",
  "abi": [
    {
      "constant": true,
      "inputs": [],
      "name": "totalThuPvProd",
      "outputs": [
        {
          "name": "",
          "type": "uint256"
        }
      ],
      "payable": false,
      "stateMutability": "view",
      "type": "function"
    },
    {
      "constant": true,
      "inputs": [],
      "name": "totalExameshWppProd",
      "outputs": [
        {
          "name": "",
          "type": "uint256"
        }
      ],
      "payable": false,
      "stateMutability": "view",
      "type": "function"
    },
    {
      "constant": true,
      "inputs": [],
      "name": "totalConsumption",
      "outputs": [
        {
          "name": "",
          "type": "uint256"
        }
      ],
      "payable": false,
      "stateMutability": "view",
      "type": "function"
    },
    {
      "constant": true,
      "inputs": [],
      "name": "totalProduction",
      "outputs": [
        {
          "name": "",
          "type": "uint256"
        }
      ],
      "payable": false,
      "stateMutability": "view",
      "type": "function"
    },
    {
      "anonymous": false,
      "inputs": [
        {
          "indexed": false,
          "name": "consumer",
          "type": "address"
        },
        {
          "indexed": false,
          "name": "consumption",
          "type": "uint256"
        },
        {
          "indexed": false,
          "name": "timestamp",
          "type": "uint256"
        }
      ],
      "name": "Consumption",
      "type": "event"
    },
    {
      "anonymous": false,
      "inputs": [
        {
          "indexed": false,
          "name": "producer",
          "type": "address"
        },
        {
          "indexed": false,
          "name": "name",
          "type": "string"
        },
        {
          "indexed": false,
          "name": "production",
          "type": "uint256"
        },
        {
          "indexed": false,
          "name": "timestamp",
          "type": "uint256"
        }
      ],
      "name": "Production",
      "type": "event"
    },
    {
      "constant": false,
      "inputs": [
        {
          "name": "_consumption",
          "type": "uint256"
        }
      ],
      "name": "sendConsumption",
      "outputs": [],
      "payable": false,
      "stateMutability": "nonpayable",
      "type": "function"
    },
    {
      "constant": false,
      "inputs": [
        {
          "name": "_production",
          "type": "uint256"
        },
        {
          "name": "_name",
          "type": "string"
        }
      ],
      "name": "sendProduction",
      "outputs": [],
      "payable": false,
      "stateMutability": "nonpayable",
      "type": "function"
    }
  ],
  "bytecode": "0x608060405234801561001057600080fd5b506104f3806100206000396000f3fe608060405234801561001057600080fd5b50600436106100625760003560e01c80631df3650d146100675780636b2d130d14610085578063b3474e8d1461014a578063c9f9cc5214610168578063ce10d05614610186578063e7ad5d79146101b4575b600080fd5b61006f6101d2565b6040518082815260200191505060405180910390f35b6101486004803603604081101561009b57600080fd5b8101908080359060200190929190803590602001906401000000008111156100c257600080fd5b8201836020820111156100d457600080fd5b803590602001918460018302840111640100000000831117156100f657600080fd5b91908080601f016020809104026020016040519081016040528093929190818152602001838380828437600081840152601f19601f8201169050808301925050505050505091929192905050506101d8565b005b61015261039c565b6040518082815260200191505060405180910390f35b6101706103a2565b6040518082815260200191505060405180910390f35b6101b26004803603602081101561019c57600080fd5b81019080803590602001909291905050506103a8565b005b6101bc610439565b6040518082815260200191505060405180910390f35b60025481565b60405180807f5448552050560000000000000000000000000000000000000000000000000000815250600601905060405180910390208180519060200120141561023c576102318260025461043f90919063ffffffff16565b60028190555061029d565b60405180807f4578616d65736820575050000000000000000000000000000000000000000000815250600b01905060405180910390208180519060200120141561029c576102958260035461043f90919063ffffffff16565b6003819055505b5b6102b28260015461043f90919063ffffffff16565b6001819055507f3a01907507513d0c2c3fb6f71952c21d086ea616f1edf79b5e25372dbbd7424933828442604051808573ffffffffffffffffffffffffffffffffffffffff1673ffffffffffffffffffffffffffffffffffffffff16815260200180602001848152602001838152602001828103825285818151815260200191508051906020019080838360005b8381101561035b578082015181840152602081019050610340565b50505050905090810190601f1680156103885780820380516001836020036101000a031916815260200191505b509550505050505060405180910390a15050565b60035481565b60005481565b6103bd8160005461043f90919063ffffffff16565b6000819055507f4cff435d4b1e6356d0e5988fab0cbf3f48a030af89899650083af211e7b08959338242604051808473ffffffffffffffffffffffffffffffffffffffff1673ffffffffffffffffffffffffffffffffffffffff168152602001838152602001828152602001935050505060405180910390a150565b60015481565b6000808284019050838110156104bd576040517f08c379a000000000000000000000000000000000000000000000000000000000815260040180806020018281038252601b8152602001807f536166654d6174683a206164646974696f6e206f766572666c6f77000000000081525060200191505060405180910390fd5b809150509291505056fea165627a7a723058202158c1748d66013a3a055b8709b1e71326af75f66586f3eab35f309872983d6f0029",
  "source": "pragma solidity >=0.4.16 <0.6.0;\n\nimport \"../node_modules/openzeppelin-solidity/contracts/math/SafeMath.sol\";\n\ncontract ChargingOrigin {\n    using SafeMath for uint256;\n\n    // data variables\n    uint256 public totalConsumption;\n    uint256 public totalProduction;\n    uint256 public totalThuPvProd;\n    uint256 public totalExameshWppProd;\n\n    // events\n    event Consumption(address consumer, uint256 consumption, uint256 timestamp);\n    event Production(address producer, string name, uint256 production, uint256 timestamp);\n\n    // functions\n    function sendConsumption(uint256 _consumption) public {\n        totalConsumption = totalConsumption.add(_consumption);\n        emit Consumption(msg.sender, _consumption, block.timestamp);\n    }\n\n    function sendProduction(uint256 _production, string memory _name) public {\n        if (keccak256(bytes(_name)) == keccak256('THU PV')) {\n            totalThuPvProd = totalThuPvProd.add(_production);\n        } else if (keccak256(bytes(_name)) == keccak256('Examesh WPP')) {\n            totalExameshWppProd = totalExameshWppProd.add(_production);\n        }\n\n        totalProduction = totalProduction.add(_production);\n        emit Production(msg.sender, _name, _production, block.timestamp);\n    }\n\n}",
  "sourcePath": "/home/yahya/Documents/GitHub/charging-origin/contracts/ChargingOrigin.sol",
  "compiler": {
    "name": "solc",
    "version": "0.5.8+commit.23d335f2.Emscripten.clang"
  },
  "schemaVersion": "3.0.16",
  "updatedAt": "2019-12-06T14:23:16.077Z",
  "devdoc": {
    "methods": {}
  },
  "userdoc": {
    "methods": {}
  }
}