{
  "contractName": "Test",
  "abi": [
    {
      "anonymous": false,
      "inputs": [
        {
          "indexed": false,
          "name": "data",
          "type": "uint256"
        }
      ],
      "name": "Data",
      "type": "event"
    },
    {
      "constant": false,
      "inputs": [
        {
          "name": "_data",
          "type": "uint256"
        }
      ],
      "name": "setData",
      "outputs": [],
      "payable": false,
      "stateMutability": "nonpayable",
      "type": "function"
    }
  ],
  "bytecode": "0x6080604052348015600f57600080fd5b5060c58061001e6000396000f3fe6080604052348015600f57600080fd5b506004361060285760003560e01c80635b4b73a914602d575b600080fd5b605660048036036020811015604157600080fd5b81019080803590602001909291905050506058565b005b806000819055507fa73e124e44b73e03309d5d4c7f51ef90fb74da03ae88b08e83ddd91d893bf091816040518082815260200191505060405180910390a15056fea165627a7a72305820c769818e5dbabf26199cbb7032623e9675e318605d4aa6ee5d97e822d233b9d50029",
  "source": "pragma solidity >=0.4.16 <0.6.0;\n\ncontract Test {\n\nuint256 data;\n\nevent Data(uint256 data);\n\nfunction setData(uint256 _data)public{\n    data =_data;\n    emit Data(_data);\n}\n\n}",
  "sourcePath": "/home/yahya/Documents/GitHub/charging-origin/contracts/Test.sol",
  "compiler": {
    "name": "solc",
    "version": "0.5.8+commit.23d335f2.Emscripten.clang"
  },
  "schemaVersion": "3.0.16",
  "updatedAt": "2019-12-17T14:53:00.638Z",
  "devdoc": {
    "methods": {}
  },
  "userdoc": {
    "methods": {}
  }
}